{
  "_format": "hh-sol-artifact-1",
  "contractName": "BlogsFactory",
  "sourceName": "contracts/blogs-contract.sol",
  "abi": [
    {
      "inputs": [
        {
          "internalType": "uint256",
          "name": "",
          "type": "uint256"
        }
      ],
      "name": "allBlogs",
      "outputs": [
        {
          "internalType": "address",
          "name": "",
          "type": "address"
        }
      ],
      "stateMutability": "view",
      "type": "function"
    },
    {
      "inputs": [
        {
          "internalType": "string",
          "name": "_title",
          "type": "string"
        },
        {
          "internalType": "string",
          "name": "_description",
          "type": "string"
        }
      ],
      "name": "createBlog",
      "outputs": [],
      "stateMutability": "nonpayable",
      "type": "function"
    },
    {
      "inputs": [],
      "name": "getAllBlogs",
      "outputs": [
        {
          "internalType": "address[]",
          "name": "",
          "type": "address[]"
        }
      ],
      "stateMutability": "view",
      "type": "function"
    }
  ],
  "bytecode": "0x608060405234801561001057600080fd5b50611c7a806100206000396000f3fe60806040523480156200001157600080fd5b5060043610620000465760003560e01c806351d3aaae146200004b578063c1e415861462000081578063c4c7470014620000a1575b600080fd5b62000069600480360381019062000063919062000346565b620000c3565b60405162000078919062000459565b60405180910390f35b6200009f6004803603810190620000999190620002d3565b62000103565b005b620000ab620001ac565b604051620000ba919062000476565b60405180910390f35b60008181548110620000d457600080fd5b906000526020600020016000915054906101000a900473ffffffffffffffffffffffffffffffffffffffff1681565b600082823360405162000116906200023c565b62000124939291906200049a565b604051809103906000f08015801562000141573d6000803e3d6000fd5b5090506000819080600181540180825580915050600190039060005260206000200160009091909190916101000a81548173ffffffffffffffffffffffffffffffffffffffff021916908373ffffffffffffffffffffffffffffffffffffffff160217905550505050565b606060008054806020026020016040519081016040528092919081815260200182805480156200023257602002820191906000526020600020905b8160009054906101000a900473ffffffffffffffffffffffffffffffffffffffff1673ffffffffffffffffffffffffffffffffffffffff1681526020019060010190808311620001e7575b5050505050905090565b6115c6806200067f83390190565b6000620002616200025b8462000519565b620004e5565b9050828152602081018484840111156200027a57600080fd5b62000287848285620005df565b509392505050565b600082601f830112620002a157600080fd5b8135620002b38482602086016200024a565b91505092915050565b600081359050620002cd8162000664565b92915050565b60008060408385031215620002e757600080fd5b600083013567ffffffffffffffff8111156200030257600080fd5b62000310858286016200028f565b925050602083013567ffffffffffffffff8111156200032e57600080fd5b6200033c858286016200028f565b9150509250929050565b6000602082840312156200035957600080fd5b60006200036984828501620002bc565b91505092915050565b60006200038083836200038c565b60208301905092915050565b6200039781620005a1565b82525050565b620003a881620005a1565b82525050565b6000620003bb826200055c565b620003c781856200057f565b9350620003d4836200054c565b8060005b838110156200040b578151620003ef888262000372565b9750620003fc8362000572565b925050600181019050620003d8565b5085935050505092915050565b6000620004258262000567565b62000431818562000590565b935062000443818560208601620005ee565b6200044e8162000653565b840191505092915050565b60006020820190506200047060008301846200039d565b92915050565b60006020820190508181036000830152620004928184620003ae565b905092915050565b60006060820190508181036000830152620004b6818662000418565b90508181036020830152620004cc818562000418565b9050620004dd60408301846200039d565b949350505050565b6000604051905081810181811067ffffffffffffffff821117156200050f576200050e62000624565b5b8060405250919050565b600067ffffffffffffffff82111562000537576200053662000624565b5b601f19601f8301169050602081019050919050565b6000819050602082019050919050565b600081519050919050565b600081519050919050565b6000602082019050919050565b600082825260208201905092915050565b600082825260208201905092915050565b6000620005ae82620005b5565b9050919050565b600073ffffffffffffffffffffffffffffffffffffffff82169050919050565b6000819050919050565b82818337600083830152505050565b60005b838110156200060e578082015181840152602081019050620005f1565b838111156200061e576000848401525b50505050565b7f4e487b7100000000000000000000000000000000000000000000000000000000600052604160045260246000fd5b6000601f19601f8301169050919050565b6200066f81620005d5565b81146200067b57600080fd5b5056fe60806040523480156200001157600080fd5b50604051620015c6380380620015c683398181016040528101906200003791906200023e565b62000047620000d060201b60201c565b60008190555082600190805190602001906200006592919062000105565b5081600290805190602001906200007e92919062000105565b5080600360006101000a81548173ffffffffffffffffffffffffffffffffffffffff021916908373ffffffffffffffffffffffffffffffffffffffff16021790555042600481905550505050620004a4565b60004244604051602001620000e7929190620002e1565b6040516020818303038152906040528051906020012060001c905090565b8280546200011390620003ec565b90600052602060002090601f01602090048101928262000137576000855562000183565b82601f106200015257805160ff191683800117855562000183565b8280016001018555821562000183579182015b828111156200018257825182559160200191906001019062000165565b5b50905062000192919062000196565b5090565b5b80821115620001b157600081600090555060010162000197565b5090565b6000620001cc620001c68462000345565b62000311565b905082815260208101848484011115620001e557600080fd5b620001f2848285620003b6565b509392505050565b6000815190506200020b816200048a565b92915050565b600082601f8301126200022357600080fd5b815162000235848260208601620001b5565b91505092915050565b6000806000606084860312156200025457600080fd5b600084015167ffffffffffffffff8111156200026f57600080fd5b6200027d8682870162000211565b935050602084015167ffffffffffffffff8111156200029b57600080fd5b620002a98682870162000211565b9250506040620002bc86828701620001fa565b9150509250925092565b620002db620002d582620003ac565b62000422565b82525050565b6000620002ef8285620002c6565b602082019150620003018284620002c6565b6020820191508190509392505050565b6000604051905081810181811067ffffffffffffffff821117156200033b576200033a6200045b565b5b8060405250919050565b600067ffffffffffffffff8211156200036357620003626200045b565b5b601f19601f8301169050602081019050919050565b600062000385826200038c565b9050919050565b600073ffffffffffffffffffffffffffffffffffffffff82169050919050565b6000819050919050565b60005b83811015620003d6578082015181840152602081019050620003b9565b83811115620003e6576000848401525b50505050565b600060028204905060018216806200040557607f821691505b602082108114156200041c576200041b6200042c565b5b50919050565b6000819050919050565b7f4e487b7100000000000000000000000000000000000000000000000000000000600052602260045260246000fd5b7f4e487b7100000000000000000000000000000000000000000000000000000000600052604160045260246000fd5b620004958162000378565b8114620004a157600080fd5b50565b61111280620004b46000396000f3fe608060405234801561001057600080fd5b50600436106100a85760003560e01c80637fe96fe9116100715780637fe96fe9146101565780638ebb4c151461017457806391f3410c146101a7578063a6c3e6b9146101c5578063c1d16516146101e3578063cf09e0d014610201576100a8565b8062981cc9146100ad578063304bcb4e146100e05780634a79d50c146100fe57806371f130711461011c5780637284e41614610138575b600080fd5b6100c760048036038101906100c29190610b6a565b61021f565b6040516100d79493929190610e89565b60405180910390f35b6100e86102f7565b6040516100f59190610e6e565b60405180910390f35b6101066102fd565b6040516101139190610e2a565b60405180910390f35b61013660048036038101906101319190610b29565b61038b565b005b61014061050a565b60405161014d9190610e2a565b60405180910390f35b61015e610598565b60405161016b9190610e4c565b60405180910390f35b61018e60048036038101906101899190610b6a565b610722565b60405161019e9493929190610e89565b60405180910390f35b6101af61080a565b6040516101bc9190610e08565b60405180910390f35b6101cd610965565b6040516101da9190610ded565b60405180910390f35b6101eb61098b565b6040516101f89190610e6e565b60405180910390f35b6102096109be565b6040516102169190610e6e565b60405180910390f35b60066020528060005260406000206000915090508060000154908060010180546102489061101a565b80601f01602080910402602001604051908101604052809291908181526020018280546102749061101a565b80156102c15780601f10610296576101008083540402835291602001916102c1565b820191906000526020600020905b8154815290600101906020018083116102a457829003601f168201915b5050505050908060020160009054906101000a900473ffffffffffffffffffffffffffffffffffffffff16908060030154905084565b60005481565b6001805461030a9061101a565b80601f01602080910402602001604051908101604052809291908181526020018280546103369061101a565b80156103835780601f1061035857610100808354040283529160200191610383565b820191906000526020600020905b81548152906001019060200180831161036657829003601f168201915b505050505081565b600060405180608001604052806103a061098b565b81526020018381526020013373ffffffffffffffffffffffffffffffffffffffff16815260200142815250905080600660008360000151815260200190815260200160002060008201518160000155602082015181600101908051906020019061040b9291906109c4565b5060408201518160020160006101000a81548173ffffffffffffffffffffffffffffffffffffffff021916908373ffffffffffffffffffffffffffffffffffffffff1602179055506060820151816003015590505060058190806001815401808255809150506001900390600052602060002090600402016000909190919091506000820151816000015560208201518160010190805190602001906104b29291906109c4565b5060408201518160020160006101000a81548173ffffffffffffffffffffffffffffffffffffffff021916908373ffffffffffffffffffffffffffffffffffffffff1602179055506060820151816003015550505050565b600280546105179061101a565b80601f01602080910402602001604051908101604052809291908181526020018280546105439061101a565b80156105905780601f1061056557610100808354040283529160200191610590565b820191906000526020600020905b81548152906001019060200180831161057357829003601f168201915b505050505081565b6105a0610a4a565b60006040518060a001604052806000548152602001600180546105c29061101a565b80601f01602080910402602001604051908101604052809291908181526020018280546105ee9061101a565b801561063b5780601f106106105761010080835404028352916020019161063b565b820191906000526020600020905b81548152906001019060200180831161061e57829003601f168201915b50505050508152602001600280546106529061101a565b80601f016020809104026020016040519081016040528092919081815260200182805461067e9061101a565b80156106cb5780601f106106a0576101008083540402835291602001916106cb565b820191906000526020600020905b8154815290600101906020018083116106ae57829003601f168201915b50505050508152602001600360009054906101000a900473ffffffffffffffffffffffffffffffffffffffff1673ffffffffffffffffffffffffffffffffffffffff16815260200160045481525090508091505090565b6005818154811061073257600080fd5b906000526020600020906004020160009150905080600001549080600101805461075b9061101a565b80601f01602080910402602001604051908101604052809291908181526020018280546107879061101a565b80156107d45780601f106107a9576101008083540402835291602001916107d4565b820191906000526020600020905b8154815290600101906020018083116107b757829003601f168201915b5050505050908060020160009054906101000a900473ffffffffffffffffffffffffffffffffffffffff16908060030154905084565b60606005805480602002602001604051908101604052809291908181526020016000905b8282101561095c57838290600052602060002090600402016040518060800160405290816000820154815260200160018201805461086b9061101a565b80601f01602080910402602001604051908101604052809291908181526020018280546108979061101a565b80156108e45780601f106108b9576101008083540402835291602001916108e4565b820191906000526020600020905b8154815290600101906020018083116108c757829003601f168201915b505050505081526020016002820160009054906101000a900473ffffffffffffffffffffffffffffffffffffffff1673ffffffffffffffffffffffffffffffffffffffff1673ffffffffffffffffffffffffffffffffffffffff1681526020016003820154815250508152602001906001019061082e565b50505050905090565b600360009054906101000a900473ffffffffffffffffffffffffffffffffffffffff1681565b600042446040516020016109a0929190610dc1565b6040516020818303038152906040528051906020012060001c905090565b60045481565b8280546109d09061101a565b90600052602060002090601f0160209004810192826109f25760008555610a39565b82601f10610a0b57805160ff1916838001178555610a39565b82800160010185558215610a39579182015b82811115610a38578251825591602001919060010190610a1d565b5b509050610a469190610a8f565b5090565b6040518060a00160405280600081526020016060815260200160608152602001600073ffffffffffffffffffffffffffffffffffffffff168152602001600081525090565b5b80821115610aa8576000816000905550600101610a90565b5090565b6000610abf610aba84610f06565b610ed5565b905082815260208101848484011115610ad757600080fd5b610ae2848285610fd8565b509392505050565b600082601f830112610afb57600080fd5b8135610b0b848260208601610aac565b91505092915050565b600081359050610b23816110c5565b92915050565b600060208284031215610b3b57600080fd5b600082013567ffffffffffffffff811115610b5557600080fd5b610b6184828501610aea565b91505092915050565b600060208284031215610b7c57600080fd5b6000610b8a84828501610b14565b91505092915050565b6000610b9f8383610d29565b905092915050565b610bb081610f9c565b82525050565b610bbf81610f9c565b82525050565b6000610bd082610f46565b610bda8185610f69565b935083602082028501610bec85610f36565b8060005b85811015610c285784840389528151610c098582610b93565b9450610c1483610f5c565b925060208a01995050600181019050610bf0565b50829750879550505050505092915050565b6000610c4582610f51565b610c4f8185610f7a565b9350610c5f818560208601610fe7565b610c68816110b4565b840191505092915050565b6000610c7e82610f51565b610c888185610f8b565b9350610c98818560208601610fe7565b610ca1816110b4565b840191505092915050565b600060a083016000830151610cc46000860182610d8c565b5060208301518482036020860152610cdc8282610c3a565b91505060408301518482036040860152610cf68282610c3a565b9150506060830151610d0b6060860182610ba7565b506080830151610d1e6080860182610d8c565b508091505092915050565b6000608083016000830151610d416000860182610d8c565b5060208301518482036020860152610d598282610c3a565b9150506040830151610d6e6040860182610ba7565b506060830151610d816060860182610d8c565b508091505092915050565b610d9581610fce565b82525050565b610da481610fce565b82525050565b610dbb610db682610fce565b61104c565b82525050565b6000610dcd8285610daa565b602082019150610ddd8284610daa565b6020820191508190509392505050565b6000602082019050610e026000830184610bb6565b92915050565b60006020820190508181036000830152610e228184610bc5565b905092915050565b60006020820190508181036000830152610e448184610c73565b905092915050565b60006020820190508181036000830152610e668184610cac565b905092915050565b6000602082019050610e836000830184610d9b565b92915050565b6000608082019050610e9e6000830187610d9b565b8181036020830152610eb08186610c73565b9050610ebf6040830185610bb6565b610ecc6060830184610d9b565b95945050505050565b6000604051905081810181811067ffffffffffffffff82111715610efc57610efb611085565b5b8060405250919050565b600067ffffffffffffffff821115610f2157610f20611085565b5b601f19601f8301169050602081019050919050565b6000819050602082019050919050565b600081519050919050565b600081519050919050565b6000602082019050919050565b600082825260208201905092915050565b600082825260208201905092915050565b600082825260208201905092915050565b6000610fa782610fae565b9050919050565b600073ffffffffffffffffffffffffffffffffffffffff82169050919050565b6000819050919050565b82818337600083830152505050565b60005b83811015611005578082015181840152602081019050610fea565b83811115611014576000848401525b50505050565b6000600282049050600182168061103257607f821691505b6020821081141561104657611045611056565b5b50919050565b6000819050919050565b7f4e487b7100000000000000000000000000000000000000000000000000000000600052602260045260246000fd5b7f4e487b7100000000000000000000000000000000000000000000000000000000600052604160045260246000fd5b6000601f19601f8301169050919050565b6110ce81610fce565b81146110d957600080fd5b5056fea264697066735822122067dfe8de0acbc8cba43ee613dadb8667f6fcc6d86f73b8886671237c7869188e64736f6c63430008000033a2646970667358221220e05e7b6d21558e5d3cf0665db1cb4c70c9b576223cf55eca448b9f8e8b485bc864736f6c63430008000033",
  "linkReferences": {},
  "deployedLinkReferences": {}
}